:100000000C945D000C9485000C9485000C94850084
:100010000C9485000C9485000C9485000C9485004C
:100020000C9485000C9485000C9485000C9485003C
:100030000C9485000C9485000C9485000C9485002C
:100040000C9453030C9485000C947D060C94AF061D
:100050000C9485000C9485000C9485000C9485000C
:100060000C9485000C94850000000008000201003B
:100070000003040700000000000000000102040863
:100080001020408001020408102001020408102002
:10009000040404040404040402020202020203032E
:1000A0000303030300000000250028002B000000CC
:1000B0000000240027002A00DF0611241FBECFEF16
:1000C000D8E0DEBFCDBF11E0A0E0B1E0E6EEF2E1A6
:1000D00002C005900D92AE32B107D9F721E0AEE231
:1000E000B1E001C01D92A43DB207E1F710E0CAEBF8
:1000F000D0E004C02297FE010E946D09C83BD107E1
:10010000C9F70E944B070C9471090C9400008937C1
:10011000A9F08A3779F1883709F056C0809110012B
:100120000E942304BC01882777FD8095982F0E94A8
:100130005A0822E539E44DE95BE30FC080910E01D6
:100140000E942304BC01882777FD8095982F0E9488
:100150005A082AE038E240EA5BE30E94E60820E021
:1001600030E048EC52E40E94E60820E030E040E253
:1001700053E424C060910A0170910B0180910C013D
:1001800090910D010E942C08862F0E942304BC012F
:10019000882777FD8095982F0E945A082AE038E238
:1001A00040EA5BE30E94E60820E030E048EC52E4DD
:1001B0000E94E60820E030E043E453E40E94BF07D9
:1001C000562F472F382F292F652F742F832F922FCB
:1001D00008954F925F926F927F92AF92BF92CF92AB
:1001E000DF92EF92FF920F931F93CF93DF93CDB7E0
:1001F000DEB728970FB6F894DEBF0FBECDBF29013A
:100200003A01ED82FE820F83188720E030E040E85B
:100210005FE30E945A0769837A838B839C839B01E7
:10022000AC01C301B2010E94E6082B013C01298107
:100230003A814B815C8160E070E0CB010E945B07FA
:100240009B01AC01C801B7010E94E6089B01AC010B
:10025000C301B2010E945B072B013C0120E030E0AA
:10026000A90169817A818B819C810E945A079B0137
:10027000AC01C601B5010E94E6089B01AC01C301B7
:10028000B2010E945B0728960FB6F894DEBF0FBE3E
:10029000CDBFDF91CF911F910F91FF90EF90DF9035
:1002A000CF90BF90AF907F906F905F904F900895E8
:1002B0004F925F926F927F92AF92BF92CF92DF92F6
:1002C000EF92FF920F931F936091060170910701C7
:1002D000882777FD8095982F0E945A082B013C01B2
:1002E00088E70E948700A12CB12C20EAC22E20E4CE
:1002F000D22EE12CF12C00E410E420E030E040E8C4
:100300005FE30E94E900A80197010E94E6089B01B3
:10031000AC01C301B2010E945B070E9427087093E1
:10032000070160930601609104017091050188271F
:1003300077FD8095982F0E945A082B013C0188E791
:100340000E94870020E030E040E85FE30E94E9007F
:10035000A80197010E94E6089B01AC01C301B2010C
:100360000E945B070E9427087093050160930401B7
:100370006091020170910301882777FD8095982F85
:100380000E945A082B013C0188E70E94870020E068
:1003900030E040E85FE30E94E900A80197010E9475
:1003A000E6089B01AC01C301B2010E945A070E94FA
:1003B000270870930301609302016091000170911E
:1003C0000101882777FD8095982F0E945A082B01FC
:1003D0003C0188E70E94870020E030E040E85FE3CE
:1003E0000E94E900A80197010E94E6089B01AC0168
:1003F000C301B2010E945A070E94270870930101AD
:1004000060930001609106017091070180911A01CB
:100410000E944004609104017091050180911801CF
:100420000E944004609102017091030180911601C5
:100430000E944004609100017091010180911401BB
:100440001F910F91FF90EF90DF90CF90BF90AF90F2
:100450007F906F905F904F900C9440044F925F920A
:100460006F927F92AF92BF92CF92DF92EF92FF9204
:100470000F931F936091060170910701882777FD04
:100480008095982F0E945A082B013C0189E70E9411
:100490008700A12CB12C40EAC42E40E4D42EE12CDC
:1004A000F12C00E410E420E030E040E85FE30E943B
:1004B000E900A80197010E94E6089B01AC01C30175
:1004C000B2010E945B070E942708709307016093A6
:1004D00006016091040170910501882777FD8095E0
:1004E000982F0E945A082B013C0189E70E9487003F
:1004F00020E030E040E85FE30E94E900A8019701B6
:100500000E94E6089B01AC01C301B2010E945A0798
:100510000E94270870930501609304016091020115
:1005200070910301882777FD8095982F0E945A08C3
:100530002B013C0189E70E94870020E030E040E881
:100540005FE30E94E900A80197010E94E6089B0171
:10055000AC01C301B2010E945B070E94270870939F
:1005600003016093020160910001709101018827ED
:1005700077FD8095982F0E945A082B013C0189E74E
:100580000E94870020E030E040E85FE30E94E9003D
:10059000A80197010E94E6089B01AC01C301B201CA
:1005A0000E945A070E94270870930101609300017E
:1005B000609106017091070180911A010E94400428
:1005C0006091040170910501809118010E9440041E
:1005D0006091020170910301809116010E94400414
:1005E0006091000170910101809114011F910F91A0
:1005F000FF90EF90DF90CF90BF90AF907F906F9083
:100600005F904F900C9440040F931F93CF93DF9310
:1006100026E040E855E260E070E087E391E00E9468
:100620001B0602E111E061E0F80180810E94C8042C
:10063000C8E0D1E061E088810E94C80461E0F8016F
:1006400080810E94010560E08881DF91CF911F9138
:100650000F910C9401050E9458016AE070E080E05F
:1006600090E00E94C0030E942E026AE070E080E0E9
:1006700090E00E94C0038FEF90E090930701809379
:1006800006019093050180930401909303018093E8
:10069000020190930101809300016AE070E080E024
:1006A00090E00C94C0031F920F920FB60F9211248A
:1006B0002F933F938F939F93AF93BF9380912F017D
:1006C00090913001A0913101B091320130912E0111
:1006D00023E0230F2D3720F40196A11DB11D05C085
:1006E00026E8230F0296A11DB11D20932E018093B1
:1006F0002F0190933001A0933101B093320180918A
:10070000330190913401A0913501B09136010196E9
:10071000A11DB11D8093330190933401A093350145
:10072000B0933601BF91AF919F918F913F912F91DF
:100730000F900FBE0F901F9018953FB7F8948091BF
:10074000330190913401A0913501B091360126B565
:10075000A89B05C02F3F19F00196A11DB11D3FBFF9
:100760006627782F892F9A2F620F711D811D911D89
:1007700042E0660F771F881F991F4A95D1F70895A9
:10078000CF92DF92EF92FF92CF93DF936B017C01C8
:100790000E949D03EB01C114D104E104F10489F02E
:1007A0000E9437050E949D036C1B7D0B683E7340C1
:1007B00090F381E0C81AD108E108F108C851DC4F74
:1007C000EACFDF91CF91FF90EF90DF90CF90089527
:1007D000789484B5826084BD84B5816084BD85B51C
:1007E000826085BD85B5816085BDEEE6F0E08081E3
:1007F00081608083E1E8F0E0108280818260808304
:10080000808181608083E0E8F0E080818160808386
:10081000E1EBF0E0808184608083E0EBF0E08081B8
:1008200081608083EAE7F0E080818460808380815A
:100830008260808380818160808380818068808302
:100840001092C10008958E3008F08E50877020916C
:100850001C0190E4299F90011124822B80937C003D
:1008600080917A00806480937A0080917A0086FD7E
:10087000FCCF809178002091790090E0922B089530
:100880001F93CF93DF93182FEB0161E00E94C80400
:10089000209711F460E004C0CF3FD10539F461E046
:1008A000812FDF91CF911F910C940105E12FF0E092
:1008B000E859FF4FE491E330F9F048F4E130B9F042
:1008C000E230A1F584B5806284BDC8BD34C0E73094
:1008D000E9F0E83019F1E43049F580918000806258
:1008E00080938000D0938B00C0938A0024C084B58D
:1008F000806884BDC7BD1FC08091800080688093E0
:100900008000D0938900C093880015C08091B0000A
:1009100080688093B000C093B3000DC08091B00098
:1009200080628093B000C093B40005C0C038D10588
:100930000CF0B5CFAFCFDF91CF911F9108958330E9
:1009400081F028F4813099F08230A1F00895873049
:10095000A9F08830B9F08430D1F4809180008F7D87
:1009600003C0809180008F7780938000089584B5C4
:100970008F7702C084B58F7D84BD08958091B000CB
:100980008F7703C08091B0008F7D8093B000089571
:10099000CF93DF9390E0FC01E458FF4F2491FC01DA
:1009A000E057FF4F8491882349F190E0880F991F09
:1009B000FC01E255FF4FA591B4918C559F4FFC016E
:1009C000C591D4919FB7611108C0F8948C9120957E
:1009D00082238C93888182230AC0623051F4F89478
:1009E0008C91322F309583238C938881822B88833E
:1009F00004C0F8948C91822B8C939FBFDF91CF9190
:100A000008950F931F93CF93DF931F92CDB7DEB757
:100A1000282F30E0F901E859FF4F8491F901E4589B
:100A2000FF4F1491F901E057FF4F04910023C9F0E3
:100A3000882321F069830E949F046981E02FF0E000
:100A4000EE0FFF1FEC55FF4FA591B4919FB7F8949F
:100A50008C91611103C01095812301C0812B8C936F
:100A60009FBF0F90DF91CF911F910F91089508952F
:100A7000FC01818D228D90E0805C9F4F821B91094B
:100A80008F7399270895FC01918D828D981731F00D
:100A9000828DE80FF11D858D90E008958FEF9FEF17
:100AA0000895FC01918D828D981761F0828DDF0190
:100AB000A80FB11D5D968C91928D9F5F9F73928F51
:100AC00090E008958FEF9FEF089585ED96E0892BD4
:100AD00049F080E090E0892B29F00E94D506811131
:100AE0000C9400000895FC01848DDF01A80FB11D56
:100AF000A35ABF4F2C91848D90E001968F73992754
:100B0000848FA689B7892C93A089B1898C91806440
:100B10008C93938D848D981306C00288F389E02D01
:100B200080818F7D80830895CF93DF93EC01888D42
:100B30008823C9F0EA89FB89808185FD05C0A889E1
:100B4000B9898C9186FD0FC00FB607FCF5CF808167
:100B500085FFF2CFA889B9898C9185FFEDCFCE01B1
:100B60000E947305E7CFDF91CF910895CF92DF9276
:100B7000FF920F931F93CF93DF931F92CDB7DEB7F2
:100B80006C0181E0D60158968C9358975B969C91A6
:100B90005B975C968C915C97981307C05096ED918B
:100BA000FC915197808185FD2EC0F601038D10E0E8
:100BB0000F5F1F4F0F731127F02EF601848DF8126F
:100BC00011C00FB607FCF9CFD6015096ED91FC91FC
:100BD0005197808185FFF1CFC60169830E9473051B
:100BE0006981EBCF838DE80FF11DE35AFF4F6083DE
:100BF000D6015B960C935B975296ED91FC915397BF
:100C0000808180620CC0D6015696ED91FC91579779
:100C100060835096ED91FC91519780818064808330
:100C200081E090E00F90DF91CF911F910F91FF90A5
:100C3000DF90CF900895BF92CF92DF92EF92FF9214
:100C4000CF93DF93EC016A017B01B22EE889F98929
:100C500082E08083411581EE580761057105A1F09E
:100C600060E079E08DE390E0A70196010E944909D8
:100C700021503109410951095695479537952795D6
:100C8000211580E1380798F0E889F989108260E839
:100C900074E88EE190E0A70196010E944909215075
:100CA0003109410951095695479537952795EC85A6
:100CB000FD853083EE85FF852083188EEC89FD89C4
:100CC000B082EA89FB89808180618083EA89FB891F
:100CD000808188608083EA89FB8980818068808345
:100CE000EA89FB8980818F7D8083DF91CF91FF909E
:100CF000EF90DF90CF90BF9008951F920F920FB6A4
:100D00000F9211242F938F939F93EF93FF93E09172
:100D10004701F09148018081E0914D01F0914E0131
:100D200082FD12C09081809150018F5F8F7320915E
:100D30005101821751F0E0915001F0E0E95CFE4F63
:100D4000958F8093500101C08081FF91EF919F9119
:100D50008F912F910F900FBE0F901F9018951F929B
:100D60000F920FB60F9211242F933F934F935F93DF
:100D70006F937F938F939F93AF93BF93EF93FF9363
:100D800087E391E00E947305FF91EF91BF91AF91CE
:100D90009F918F917F916F915F914F913F912F9193
:100DA0000F900FBE0F901F90189587E391E00E945F
:100DB000380521E0892B09F420E0822F0895109254
:100DC0003A011092390188EE93E0A0E0B0E0809300
:100DD0003B0190933C01A0933D01B0933E0181E221
:100DE00091E0909338018093370185EC90E09093E7
:100DF00044018093430184EC90E0909346018093FA
:100E0000450180EC90E0909348018093470181EC8C
:100E100090E090934A018093490182EC90E0909396
:100E20004C0180934B0186EC90E090934E018093AF
:100E30004D011092500110925101109252011092E6
:100E400053010895CF92DF92EF92FF920F931F9379
:100E5000CF93DF936C017A01EB01E60EF71E00E001
:100E600010E0CE15DF0561F06991D601ED91FC919E
:100E70000190F081E02DC6010995080F191FF1CFEF
:100E8000C801DF91CF911F910F91FF90EF90DF90FC
:100E9000CF90089508950E94E8030E944A070E9497
:100EA0000403C5E6D5E00E942B032097E1F30E94DE
:100EB0006505F9CF5058BB27AA270ED04DC13ED1AA
:100EC00030F043D120F031F49F3F11F41EF433C1D0
:100ED0000EF4E095E7FB29C1E92F4FD180F3BA1753
:100EE000620773078407950718F071F49EF567C1D0
:100EF0000EF4E0950B2EBA2FA02D0B01B901900135
:100F00000C01CA01A0011124FF27591B99F0593F78
:100F100050F4503E68F11A16F040A22F232F342FC0
:100F20004427585FF3CF469537952795A795F0400E
:100F30005395C9F77EF41F16BA0B620B730B840B23
:100F4000BAF09150A1F0FF0FBB1F661F771F881FDB
:100F5000C2F70EC0BA0F621F731F841F48F4879533
:100F600077956795B795F7959E3F08F0B3CF939522
:100F7000880F08F09927EE0F9795879508950CD064
:100F8000EBC0E3D040F0DAD030F021F45F3F19F04D
:100F9000CCC0511115C1CFC0F0D098F39923C9F33B
:100FA0005523B1F3951B550BBB27AA27621773076F
:100FB000840738F09F5F5F4F220F331F441FAA1F23
:100FC000A9F333D00E2E3AF0E0E830D091505040E3
:100FD000E695001CCAF729D0FE2F27D0660F771F91
:100FE000881FBB1F261737074807AB07B0E809F073
:100FF000BB0B802DBF01FF2793585F4F2AF09E3F08
:10100000510568F092C0DCC05F3FECF3983EDCF322
:10101000869577956795B795F7959F5FC9F7880F80
:10102000911D9695879597F90895E1E0660F771FD2
:10103000881FBB1F621773078407BA0720F0621B63
:10104000730B840BBA0BEE1F88F7E095089504D05C
:101050006894B111B5C0089598D088F09F5790F06A
:10106000B92F9927B751A0F0D1F0660F771F881FCD
:10107000991F1AF0BA95C9F712C0B13081F09FD00C
:10108000B1E008959CC0672F782F8827B85F39F0AA
:10109000B93FCCF3869577956795B395D9F73EF42C
:1010A00090958095709561957F4F8F4F9F4F0895D4
:1010B000E89409C097FB3EF49095809570956195F2
:1010C0007F4F8F4F9F4F9923A9F0F92F96E9BB27A8
:1010D0009395F695879577956795B795F111F8CF24
:1010E000FAF4BB0F11F460FF1BC06F5F7F4F8F4F8F
:1010F0009F4F16C0882311F096E911C0772321F085
:101100009EE8872F762F05C0662371F096E8862F1C
:1011100070E060E02AF09A95660F771F881FDAF773
:10112000880F9695879597F9089597F99F6780E8B6
:1011300070E060E008959FEF80EC089500240A9429
:101140001616170618060906089500240A941216A2
:101150001306140605060895092E0394000C11F4D5
:10116000882352F0BB0F40F4BF2B11F460FF04C082
:101170006F5F7F4F8F4F9F4F089557FD9058440FDB
:10118000551F59F05F3F71F04795880F97FB991FE6
:1011900061F09F3F79F087950895121613061406A3
:1011A000551FF2CF4695F1DF08C016161706180630
:1011B000991FF1CF86957105610508940895E8940B
:1011C000BB2766277727CB0197F908950BD0C4CFAB
:1011D000B5DF28F0BADF18F0952309F0A6CFABCF22
:1011E0001124EECFCADFA0F3959FD1F3950F50E005
:1011F000551F629FF001729FBB27F00DB11D639FC9
:10120000AA27F00DB11DAA1F649F6627B00DA11D6E
:10121000661F829F2227B00DA11D621F739FB00D14
:10122000A11D621F839FA00D611D221F749F332784
:10123000A00D611D231F849F600D211D822F762F1D
:101240006A2F11249F5750408AF0E1F088234AF01A
:10125000EE0FFF1FBB1F661F771F881F9150504066
:10126000A9F79E3F510570F060CFAACF5F3FECF326
:10127000983EDCF3869577956795B795F795E79552
:101280009F5FC1F7FE2B880F911D9695879597F963
:101290000895A1E21A2EAA1BBB1BFD010DC0AA1FB7
:1012A000BB1FEE1FFF1FA217B307E407F50720F0CF
:1012B000A21BB30BE40BF50B661F771F881F991F4A
:1012C0001A9469F760957095809590959B01AC0193
:1012D000BD01CF010895EE0FFF1F0590F491E02DA1
:0612E0000994F894FFCF11
:1012E600FF00FF00FF00FF00120000008841100011
:1012F6000F000E000B000A000900060001000000A6
:0E13060000B605220738055105430594050081
:00000001FF
